:100E8400D3EF9400EE940040147D6E7C00ED1D7051
:0D0E9400011CED4C70F7EF1F70E61E80E3AF
:010EA100222E
:100E5F00C2B77B46AF031BEF70FAD2B7E4FB30B7D4
:100E6F00117F017E00120E840BEBD3940540EF7FB0
:040E7F0000227F01CD
:010E8300224C
:0C0DDF00120E5F7F017E00120E847FCC9C
:100DEB00E4FBFAC2B70517E51770020516EF13926D
:100DFB00B7751600751706E5171517AC16700215A3
:100E0B00164C70F3D2B7EFC313FF0BBB00010AEB09
:050E1B0064084A70CEDE
:010E200022AF
:100E21007D087C00C2B70FBF0000D2B70FBF000022
:100E31000FBF0000A2B7E433C43333335480FBE95E
:100E4100C3134BF97E007F04EF1FAA0670011E4AEF
:0D0E510070F6ED1D70011CED4C70C9AF0175
:010E5E002271
:080EF200120DDF7F44020DEB3D
:080EFA00120DDF7FBE020DEBBB
:100EA200E4FFFE120EF2120EFA120E218F15120E2E
:060EB20021EFFEE515FF33
:010EB8002217
:0A0EE8003F065B4F666D7D077F6FCC
:030F0200010C00DF
:0B0EDD00EF1FAC0670011E4C70F622E7
:040B5600AB07AA0639
:100B5A00C3EA648094805010750D40EB1B70011A33
:100B6A006303FF6302FF8003E4F50DAD03AC02ECFF
:100B7A00120A038F188E178D168C15E4FFFE7DC896
:100B8A007C40AB18AA17A916A8151208F8E4FBFAB4
:100B9A00F9783F120807120A3CAA06AB077C277DA0
:100BAA0010AF03AE02120ABD74E82FF582740E3E2E
:100BBA00F583E493F50E7C277D10AF03AE02120A8B
:100BCA00BD7E037FE8CFCDCFCECCCE120ABD74E86E
:100BDA002FF582740E3EF583E493F50F7C037DE8CE
:100BEA00AF03AE02120ABD7E007F64CFCDCFCECC5A
:100BFA00CE120ABD74E82FF582740E3EF583E49393
:100C0A004480F5107C007D64AF03AE02120ABD7EFB
:100C1A00007F0ACFCDCFCECCCE120ABD74E82FF515
:100C2A0082740E3EF583E493F5117C007D0AAF03CE
:100C3A00AE02120ABD74E82DF582740E3CF583E407
:100C4A0093F5127C277D10AF03AE02120ABD7E0314
:100C5A007FE8CFCDCFCECCCE120ABDEF2430F50837
:100C6A007C037DE8AF03AE02120ABD7E007F64CF2B
:100C7A00CDCFCECCCE120ABDEF2430F5097C007D53
:100C8A0064AF03AE02120ABD7E007F0ACFCDCFCE7B
:100C9A00CCCE120ABDEF2430F50AAE02AF037C00B7
:0A0CAA007D0A120ABDED2430F50B9F
:010CB400221D
:100D4100E4FDED14601414601914601A14601F148A
:100D5100602024057022C2A28002D2A2C2A3C2A432
:100D61008016C2A28002D2A2D2A3C2A4800AC2A2C9
:100D71008002D2A2C2A3D2A4C374059D240DF8E6B9
:100D8100F5807F647E00120EDDE4F5800DBD06B2B4
:010D9100223F
:100EB900759850758920758780758DF3758BF3D278
:060EC900ACD2AFD28E2274
:0E0ECF00120EB9120EA2120B56120D4180F532
:03002300020D9239
:0D0D9200C0E0C0D075D000C004C005C0078F
:100D9F00C298AF99EFFD7C00EC7023ED1460111435
:100DAF00601214601314601424047012AF08800EC4
:100DBF00AF09800A7F2E8006AF0A8002AF0B8F9992
:050DCF003099FDC299FE
:0B0DD400D007D005D004D0D0D0E03212
:10080000020AA8E86480F8E933E83360110460F074
:10081000ED33EC337009E8FCE9FDEAFEEBFF22045E
:1008200060DED3EB9FEA9EE99DE8C2E78CF0C2F759
:1008300095F0400CE8CCF8E9CDF9EACEFAEBCFFB25
:10084000120A7385D0F05804700320D5B3E8047001
:10085000075002B2D5020AB292D5EC0460F7E4CC9C
:10086000C0E0C398F8603B94186008400DD0E0FBEE
:10087000020A8AE4FBFAC9FC8028E830E406E4C9ED
:10088000FBE4CAFCE830E305E4C9CACBFCE8540742
:100890006010F8C3E913F9EA13FAEB13FBEC13FC4D
:1008A000D8F130F52FC3E49CFCEF9BFFEE9AFEEDF0
:1008B00099FDD0E0FBEF4E4D4C701222DB03020A93
:1008C000AFEC2CFCEF33FFEE33FEED33FDED30E704
:1008D000EB020A8AEF2BFFEE3AFEED39FDD0E0FB8A
:1008E00050130BBB0003020AB2ED13FDEE13FEEF33
:0808F00013FFEC13FC020A8A5D
:1008F800EC4D6011E8497017ED33EC3304600DE4FA
:10090800FCFFFEFD22E933E8330470F8020AA8125E
:100918000A7358046009E4CC24815006285009025F
:100928000AB2284003020AAFC0E0EB4A7044B9801B
:1009380006D0E0FB020A9EEF4E701CBD8008EBFF5C
:10094800EAFEE9FD80EBE98DF0A4FEE5F00209E19D
:10095800E9CDF9EAFEEBFFEF89F0A4FCE5F0CE89DA
:10096800F0A42EFFE435F0CD89F0A42DFEE435F097
:100978008067EF4E7005BD80D780C3EF8BF0A4ACC5
:10098800F0EE8BF0A42CFCE435F0F8EF8AF0A42C00
:10099800E5F038FCE433CB8DF0A42CFCE5F03BF813
:1009A800EE8AF0A42CFCE5F038F8E433CF89F0A403
:1009B8002CFCE5F038CF3400CE89F0A42FFFE5F009
:1009C8003EFEE433C98DF0A42EFEE5F039CD8AF061
:1009D800A42FFFE5F03EFEE43DFD33D0E0FB5007D9
:1009E8000BBB000F020AB2EC2CFCEF33FFEE33FE18
:0609F800ED33FD020A8A46
:1009FE0075F020800E75F010800575F0087D007E74
:100A0E00007F003392D530D503120AF3EC33401039
:100A1E00EF33FFEE33FEED33FDEC33FCD5F0ED227C
:0E0A2E00E5F0247EA2D513CC92E7CDCEFF22B8
:100A3C00EDD2E7CD33EC3392D524814006E4FFFEB2
:100A4C00FDFC22FCE4CFCECDCC24E0501174FF8011
:100A5C00EDC3CC13CCCD13CDCE13CECF13CF0470AE
:070A6C00F030D5DE020AF3B1
:100A7300E9D2E7C933E833F892D5EDD2E7CD33ECC9
:070A830033FC5002B2D52242
:100A8A00EC30E7100FBF000C0EBE00080DBD0004CD
:100A9A000BEB6014A2D5EB13FCED92E7FD2274FF79
:100AAA00FCFDFEFF22E480F8A2D574FF13FC7D80D2
:030ABA00E480EFE6
:03000000020CB53A
:0C0CB500787FE4F6D8FD758118020CFC75
:100ABD00C2D5EC30E709B2D5E4C39DFDE49CFCEE54
:100ACD0030E715B2D5E4C39FFFE49EFE120B01C3C0
:100ADD00E49DFDE49CFC8003120B0130D507C3E4BB
:060AED009FFFE49EFE22C3
:0E0AF300C3E49FFFE49EFEE49DFDE49CFC2214
:100CC100020ECFE493A3F8E493A34003F68001F26C
:100CD10008DFF48029E493A3F85407240CC8C33334
:100CE100C4540F4420C8834004F456800146F6DF03
:100CF100E4800B0102040810204080900F02E47E82
:100D0100019360BCA3FF543F30E509541FFEE493F7
:100D1100A360010ECF54C025E060A840B8E493A3BE
:100D2100FAE493A3F8E493A3C8C582C8CAC583CAE9
:100D3100F0A3C8C582C8CAC583CADFE9DEE780BEA1
:010F050000EB
:100B0100BC000BBE0029EF8DF084FFADF022E4CCD8
:100B1100F875F008EF2FFFEE33FEEC33FCEE9DECA1
:100B2100984005FCEE9DFE0FD5F0E9E4CEFD22EDE7
:100B3100F8F5F0EE8420D21CFEADF075F008EF2F31
:100B4100FFED33FD4007985006D5F0F222C398FD22
:050B51000FD5F0EA22BF
:00000001FF
